{
  "_format": "hh-sol-artifact-1",
  "contractName": "PartyPortal",
  "sourceName": "contracts/PartyPortal.sol",
  "abi": [
    {
      "inputs": [],
      "stateMutability": "payable",
      "type": "constructor"
    },
    {
      "anonymous": false,
      "inputs": [
        {
          "indexed": true,
          "internalType": "address",
          "name": "from",
          "type": "address"
        }
      ],
      "name": "NewLeader",
      "type": "event"
    },
    {
      "anonymous": false,
      "inputs": [
        {
          "indexed": true,
          "internalType": "address",
          "name": "from",
          "type": "address"
        },
        {
          "indexed": false,
          "internalType": "uint256",
          "name": "timestamp",
          "type": "uint256"
        },
        {
          "indexed": false,
          "internalType": "string",
          "name": "message",
          "type": "string"
        }
      ],
      "name": "NewParty",
      "type": "event"
    },
    {
      "inputs": [],
      "name": "getBestHost",
      "outputs": [
        {
          "internalType": "address",
          "name": "",
          "type": "address"
        }
      ],
      "stateMutability": "view",
      "type": "function"
    },
    {
      "inputs": [],
      "name": "getParties",
      "outputs": [
        {
          "components": [
            {
              "internalType": "address",
              "name": "host",
              "type": "address"
            },
            {
              "internalType": "string",
              "name": "message",
              "type": "string"
            },
            {
              "internalType": "uint256",
              "name": "timestamp",
              "type": "uint256"
            }
          ],
          "internalType": "struct PartyPortal.Party[]",
          "name": "",
          "type": "tuple[]"
        }
      ],
      "stateMutability": "view",
      "type": "function"
    },
    {
      "inputs": [],
      "name": "getPartyCount",
      "outputs": [
        {
          "internalType": "uint256",
          "name": "",
          "type": "uint256"
        }
      ],
      "stateMutability": "view",
      "type": "function"
    },
    {
      "inputs": [
        {
          "internalType": "string",
          "name": "_message",
          "type": "string"
        }
      ],
      "name": "throwParty",
      "outputs": [],
      "stateMutability": "nonpayable",
      "type": "function"
    }
  ],
  "bytecode": "0x60806040526200004f6040518060400160405280601681526020017f50617274792072756e6e696e272e20506f6767657273000000000000000000008152506200007860201b620007a31760201c565b6103e84442620000609190620001c5565b6200006c919062000266565b6004819055506200030d565b62000118816040516024016200008f919062000185565b6040516020818303038152906040527f41304fac000000000000000000000000000000000000000000000000000000007bffffffffffffffffffffffffffffffffffffffffffffffffffffffff19166020820180517bffffffffffffffffffffffffffffffffffffffffffffffffffffffff83818316178352505050506200011b60201b60201c565b50565b60008151905060006a636f6e736f6c652e6c6f679050602083016000808483855afa5050505050565b60006200015182620001a9565b6200015d8185620001b4565b93506200016f81856020860162000230565b6200017a81620002fc565b840191505092915050565b60006020820190508181036000830152620001a1818462000144565b905092915050565b600081519050919050565b600082825260208201905092915050565b6000620001d28262000226565b9150620001df8362000226565b9250817fffffffffffffffffffffffffffffffffffffffffffffffffffffffffffffffff04831182151516156200021b576200021a6200029e565b5b828202905092915050565b6000819050919050565b60005b838110156200025057808201518184015260208101905062000233565b8381111562000260576000848401525b50505050565b6000620002738262000226565b9150620002808362000226565b925082620002935762000292620002cd565b5b828206905092915050565b7f4e487b7100000000000000000000000000000000000000000000000000000000600052601160045260246000fd5b7f4e487b7100000000000000000000000000000000000000000000000000000000600052601260045260246000fd5b6000601f19601f8301169050919050565b6111df806200031d6000396000f3fe608060405234801561001057600080fd5b506004361061004c5760003560e01c806360b960e514610051578063a8311aa81461006f578063ad0f2e061461008d578063ba4b3cb2146100ab575b600080fd5b6100596100c7565b6040516100669190610d64565b60405180910390f35b6100776100d3565b6040516100849190610c90565b60405180910390f35b610095610224565b6040516100a29190610c75565b60405180910390f35b6100c560048036038101906100c09190610a0c565b61024e565b005b60008080549050905090565b60606000805480602002602001604051908101604052809291908181526020016000905b8282101561021b57838290600052602060002090600302016040518060600160405290816000820160009054906101000a900473ffffffffffffffffffffffffffffffffffffffff1673ffffffffffffffffffffffffffffffffffffffff1673ffffffffffffffffffffffffffffffffffffffff16815260200160018201805461018090610fa4565b80601f01602080910402602001604051908101604052809291908181526020018280546101ac90610fa4565b80156101f95780601f106101ce576101008083540402835291602001916101f9565b820191906000526020600020905b8154815290600101906020018083116101dc57829003601f168201915b50505050508152602001600282015481525050815260200190600101906100f7565b50505050905090565b6000600360009054906101000a900473ffffffffffffffffffffffffffffffffffffffff16905090565b426104b0600260003373ffffffffffffffffffffffffffffffffffffffff1673ffffffffffffffffffffffffffffffffffffffff1681526020019081526020016000205461029c9190610e76565b106102dc576040517f08c379a00000000000000000000000000000000000000000000000000000000081526004016102d390610d04565b60405180910390fd5b42600260003373ffffffffffffffffffffffffffffffffffffffff1673ffffffffffffffffffffffffffffffffffffffff16815260200190815260200160002081905550600060405180606001604052803373ffffffffffffffffffffffffffffffffffffffff16815260200183815260200142815250908060018154018082558091505060019003906000526020600020906003020160009091909190915060008201518160000160006101000a81548173ffffffffffffffffffffffffffffffffffffffff021916908373ffffffffffffffffffffffffffffffffffffffff16021790555060208201518160010190805190602001906103df929190610901565b5060408201518160020155505060018060003373ffffffffffffffffffffffffffffffffffffffff1673ffffffffffffffffffffffffffffffffffffffff168152602001908152602001600020600082825461043b9190610e76565b9250508190555060016000600360009054906101000a900473ffffffffffffffffffffffffffffffffffffffff1673ffffffffffffffffffffffffffffffffffffffff1673ffffffffffffffffffffffffffffffffffffffff16815260200190815260200160002054600160003373ffffffffffffffffffffffffffffffffffffffff1673ffffffffffffffffffffffffffffffffffffffff1681526020019081526020016000205411801561053f5750600360009054906101000a900473ffffffffffffffffffffffffffffffffffffffff1673ffffffffffffffffffffffffffffffffffffffff163373ffffffffffffffffffffffffffffffffffffffff1614155b156105eb5733600360006101000a81548173ffffffffffffffffffffffffffffffffffffffff021916908373ffffffffffffffffffffffffffffffffffffffff160217905550600360009054906101000a900473ffffffffffffffffffffffffffffffffffffffff1673ffffffffffffffffffffffffffffffffffffffff167fd5c441678016e6395cfedd432cb8681c9e7bad1e08184bc4c3a463610afbed1660405160405180910390a25b6103e844426105fa9190610ecc565b6106049190611007565b600481905550604560045411610750576106536040518060400160405280600781526020017f25732c20776f6e000000000000000000000000000000000000000000000000008152503361083c565b60006509184e72a0009050478111156106a1576040517f08c379a000000000000000000000000000000000000000000000000000000000815260040161069890610d44565b60405180910390fd5b60003373ffffffffffffffffffffffffffffffffffffffff16826040516106c790610c60565b60006040518083038185875af1925050503d8060008114610704576040519150601f19603f3d011682016040523d82523d6000602084013e610709565b606091505b505090508061074d576040517f08c379a000000000000000000000000000000000000000000000000000000000815260040161074490610d24565b60405180910390fd5b50505b3373ffffffffffffffffffffffffffffffffffffffff167ff9a6af53c5fc98f326a94053644fe1b3e1a9fe5d82a650606b585aeb9584f3204283604051610798929190610d7f565b60405180910390a250565b610839816040516024016107b79190610cb2565b6040516020818303038152906040527f41304fac000000000000000000000000000000000000000000000000000000007bffffffffffffffffffffffffffffffffffffffffffffffffffffffff19166020820180517bffffffffffffffffffffffffffffffffffffffffffffffffffffffff83818316178352505050506108d8565b50565b6108d48282604051602401610852929190610cd4565b6040516020818303038152906040527f319af333000000000000000000000000000000000000000000000000000000007bffffffffffffffffffffffffffffffffffffffffffffffffffffffff19166020820180517bffffffffffffffffffffffffffffffffffffffffffffffffffffffff83818316178352505050506108d8565b5050565b60008151905060006a636f6e736f6c652e6c6f679050602083016000808483855afa5050505050565b82805461090d90610fa4565b90600052602060002090601f01602090048101928261092f5760008555610976565b82601f1061094857805160ff1916838001178555610976565b82800160010185558215610976579182015b8281111561097557825182559160200191906001019061095a565b5b5090506109839190610987565b5090565b5b808211156109a0576000816000905550600101610988565b5090565b60006109b76109b284610dd4565b610daf565b9050828152602081018484840111156109cf57600080fd5b6109da848285610f62565b509392505050565b600082601f8301126109f357600080fd5b8135610a038482602086016109a4565b91505092915050565b600060208284031215610a1e57600080fd5b600082013567ffffffffffffffff811115610a3857600080fd5b610a44848285016109e2565b91505092915050565b6000610a598383610bf2565b905092915050565b610a6a81610f26565b82525050565b610a7981610f26565b82525050565b6000610a8a82610e15565b610a948185610e38565b935083602082028501610aa685610e05565b8060005b85811015610ae25784840389528151610ac38582610a4d565b9450610ace83610e2b565b925060208a01995050600181019050610aaa565b50829750879550505050505092915050565b6000610aff82610e20565b610b098185610e54565b9350610b19818560208601610f71565b610b22816110f4565b840191505092915050565b6000610b3882610e20565b610b428185610e65565b9350610b52818560208601610f71565b610b5b816110f4565b840191505092915050565b6000610b73601c83610e65565b9150610b7e82611105565b602082019050919050565b6000610b96602883610e65565b9150610ba18261112e565b604082019050919050565b6000610bb9601383610e65565b9150610bc48261117d565b602082019050919050565b6000610bdc600083610e49565b9150610be7826111a6565b600082019050919050565b6000606083016000830151610c0a6000860182610a61565b5060208301518482036020860152610c228282610af4565b9150506040830151610c376040860182610c42565b508091505092915050565b610c4b81610f58565b82525050565b610c5a81610f58565b82525050565b6000610c6b82610bcf565b9150819050919050565b6000602082019050610c8a6000830184610a70565b92915050565b60006020820190508181036000830152610caa8184610a7f565b905092915050565b60006020820190508181036000830152610ccc8184610b2d565b905092915050565b60006040820190508181036000830152610cee8185610b2d565b9050610cfd6020830184610a70565b9392505050565b60006020820190508181036000830152610d1d81610b66565b9050919050565b60006020820190508181036000830152610d3d81610b89565b9050919050565b60006020820190508181036000830152610d5d81610bac565b9050919050565b6000602082019050610d796000830184610c51565b92915050565b6000604082019050610d946000830185610c51565b8181036020830152610da68184610b2d565b90509392505050565b6000610db9610dca565b9050610dc58282610fd6565b919050565b6000604051905090565b600067ffffffffffffffff821115610def57610dee6110c5565b5b610df8826110f4565b9050602081019050919050565b6000819050602082019050919050565b600081519050919050565b600081519050919050565b6000602082019050919050565b600082825260208201905092915050565b600081905092915050565b600082825260208201905092915050565b600082825260208201905092915050565b6000610e8182610f58565b9150610e8c83610f58565b9250827fffffffffffffffffffffffffffffffffffffffffffffffffffffffffffffffff03821115610ec157610ec0611038565b5b828201905092915050565b6000610ed782610f58565b9150610ee283610f58565b9250817fffffffffffffffffffffffffffffffffffffffffffffffffffffffffffffffff0483118215151615610f1b57610f1a611038565b5b828202905092915050565b6000610f3182610f38565b9050919050565b600073ffffffffffffffffffffffffffffffffffffffff82169050919050565b6000819050919050565b82818337600083830152505050565b60005b83811015610f8f578082015181840152602081019050610f74565b83811115610f9e576000848401525b50505050565b60006002820490506001821680610fbc57607f821691505b60208210811415610fd057610fcf611096565b5b50919050565b610fdf826110f4565b810181811067ffffffffffffffff82111715610ffe57610ffd6110c5565b5b80604052505050565b600061101282610f58565b915061101d83610f58565b92508261102d5761102c611067565b5b828206905092915050565b7f4e487b7100000000000000000000000000000000000000000000000000000000600052601160045260246000fd5b7f4e487b7100000000000000000000000000000000000000000000000000000000600052601260045260246000fd5b7f4e487b7100000000000000000000000000000000000000000000000000000000600052602260045260246000fd5b7f4e487b7100000000000000000000000000000000000000000000000000000000600052604160045260246000fd5b6000601f19601f8301169050919050565b7f57686f612c20736c6f7720646f776e207468657265206368616d702100000000600082015250565b7f4661696c656420746f207769746864726177206574686572732066726f6d206360008201527f6f6e74726163742e000000000000000000000000000000000000000000000000602082015250565b7f57652063616e2774206c6f616e2c206475682100000000000000000000000000600082015250565b5056fea2646970667358221220cd5e819bd2aede7233debc641903f9d75f415e758a4e3d4cbda61f74bde9481464736f6c63430008040033",
  "linkReferences": {},
  "deployedLinkReferences": {}
}