{
  "_format": "hh-sol-artifact-1",
  "contractName": "PartyPortal",
  "sourceName": "contracts/PartyPortal.sol",
  "abi": [
    {
      "inputs": [],
      "stateMutability": "payable",
      "type": "constructor"
    },
    {
      "anonymous": false,
      "inputs": [
        {
          "indexed": true,
          "internalType": "address",
          "name": "from",
          "type": "address"
        },
        {
          "indexed": false,
          "internalType": "uint256",
          "name": "timestamp",
          "type": "uint256"
        },
        {
          "indexed": false,
          "internalType": "string",
          "name": "message",
          "type": "string"
        }
      ],
      "name": "NewParty",
      "type": "event"
    },
    {
      "inputs": [],
      "name": "getBestHost",
      "outputs": [
        {
          "internalType": "address",
          "name": "",
          "type": "address"
        }
      ],
      "stateMutability": "view",
      "type": "function"
    },
    {
      "inputs": [],
      "name": "getParties",
      "outputs": [
        {
          "components": [
            {
              "internalType": "address",
              "name": "host",
              "type": "address"
            },
            {
              "internalType": "string",
              "name": "message",
              "type": "string"
            },
            {
              "internalType": "uint256",
              "name": "timestamp",
              "type": "uint256"
            }
          ],
          "internalType": "struct PartyPortal.Party[]",
          "name": "",
          "type": "tuple[]"
        }
      ],
      "stateMutability": "view",
      "type": "function"
    },
    {
      "inputs": [],
      "name": "getTotalParty",
      "outputs": [
        {
          "internalType": "uint256",
          "name": "",
          "type": "uint256"
        }
      ],
      "stateMutability": "view",
      "type": "function"
    },
    {
      "inputs": [
        {
          "internalType": "string",
          "name": "_message",
          "type": "string"
        }
      ],
      "name": "throwParty",
      "outputs": [],
      "stateMutability": "nonpayable",
      "type": "function"
    }
  ],
  "bytecode": "0x60806040526200004f6040518060400160405280601681526020017f50617274792072756e6e696e272e20506f6767657273000000000000000000008152506200005560201b620005bf1760201c565b620001e9565b620000f5816040516024016200006c919062000162565b6040516020818303038152906040527f41304fac000000000000000000000000000000000000000000000000000000007bffffffffffffffffffffffffffffffffffffffffffffffffffffffff19166020820180517bffffffffffffffffffffffffffffffffffffffffffffffffffffffff8381831617835250505050620000f860201b60201c565b50565b60008151905060006a636f6e736f6c652e6c6f679050602083016000808483855afa5050505050565b60006200012e8262000186565b6200013a818562000191565b93506200014c818560208601620001a2565b6200015781620001d8565b840191505092915050565b600060208201905081810360008301526200017e818462000121565b905092915050565b600081519050919050565b600082825260208201905092915050565b60005b83811015620001c2578082015181840152602081019050620001a5565b83811115620001d2576000848401525b50505050565b6000601f19601f8301169050919050565b610e6980620001f96000396000f3fe608060405234801561001057600080fd5b506004361061004c5760003560e01c80636d5ab6d714610051578063a8311aa81461006f578063ad0f2e061461008d578063ba4b3cb2146100ab575b600080fd5b6100596100c7565b6040516100669190610a71565b60405180910390f35b6100776100d3565b60405161008491906109ed565b60405180910390f35b610095610224565b6040516100a291906109d2565b60405180910390f35b6100c560048036038101906100c0919061078c565b61024e565b005b60008080549050905090565b60606000805480602002602001604051908101604052809291908181526020016000905b8282101561021b57838290600052602060002090600302016040518060600160405290816000820160009054906101000a900473ffffffffffffffffffffffffffffffffffffffff1673ffffffffffffffffffffffffffffffffffffffff1673ffffffffffffffffffffffffffffffffffffffff16815260200160018201805461018090610c57565b80601f01602080910402602001604051908101604052809291908181526020018280546101ac90610c57565b80156101f95780601f106101ce576101008083540402835291602001916101f9565b820191906000526020600020905b8154815290600101906020018083116101dc57829003601f168201915b50505050508152602001600282015481525050815260200190600101906100f7565b50505050905090565b6000600260009054906101000a900473ffffffffffffffffffffffffffffffffffffffff16905090565b600060405180606001604052803373ffffffffffffffffffffffffffffffffffffffff16815260200183815260200142815250908060018154018082558091505060019003906000526020600020906003020160009091909190915060008201518160000160006101000a81548173ffffffffffffffffffffffffffffffffffffffff021916908373ffffffffffffffffffffffffffffffffffffffff160217905550602082015181600101908051906020019061030d929190610681565b5060408201518160020155505060018060003373ffffffffffffffffffffffffffffffffffffffff1673ffffffffffffffffffffffffffffffffffffffff16815260200190815260200160002060008282546103699190610b83565b9250508190555060016000600260009054906101000a900473ffffffffffffffffffffffffffffffffffffffff1673ffffffffffffffffffffffffffffffffffffffff1673ffffffffffffffffffffffffffffffffffffffff16815260200190815260200160002054600160003373ffffffffffffffffffffffffffffffffffffffff1673ffffffffffffffffffffffffffffffffffffffff16815260200190815260200160002054111561045a5733600260006101000a81548173ffffffffffffffffffffffffffffffffffffffff021916908373ffffffffffffffffffffffffffffffffffffffff1602179055505b3373ffffffffffffffffffffffffffffffffffffffff167ff9a6af53c5fc98f326a94053644fe1b3e1a9fe5d82a650606b585aeb9584f32042836040516104a2929190610a8c565b60405180910390a260006045426104b99190610cba565b14156105bc5760006509184e72a00090504781111561050d576040517f08c379a000000000000000000000000000000000000000000000000000000000815260040161050490610a51565b60405180910390fd5b60003373ffffffffffffffffffffffffffffffffffffffff1682604051610533906109bd565b60006040518083038185875af1925050503d8060008114610570576040519150601f19603f3d011682016040523d82523d6000602084013e610575565b606091505b50509050806105b9576040517f08c379a00000000000000000000000000000000000000000000000000000000081526004016105b090610a31565b60405180910390fd5b50505b50565b610655816040516024016105d39190610a0f565b6040516020818303038152906040527f41304fac000000000000000000000000000000000000000000000000000000007bffffffffffffffffffffffffffffffffffffffffffffffffffffffff19166020820180517bffffffffffffffffffffffffffffffffffffffffffffffffffffffff8381831617835250505050610658565b50565b60008151905060006a636f6e736f6c652e6c6f679050602083016000808483855afa5050505050565b82805461068d90610c57565b90600052602060002090601f0160209004810192826106af57600085556106f6565b82601f106106c857805160ff19168380011785556106f6565b828001600101855582156106f6579182015b828111156106f55782518255916020019190600101906106da565b5b5090506107039190610707565b5090565b5b80821115610720576000816000905550600101610708565b5090565b600061073761073284610ae1565b610abc565b90508281526020810184848401111561074f57600080fd5b61075a848285610c15565b509392505050565b600082601f83011261077357600080fd5b8135610783848260208601610724565b91505092915050565b60006020828403121561079e57600080fd5b600082013567ffffffffffffffff8111156107b857600080fd5b6107c484828501610762565b91505092915050565b60006107d9838361094f565b905092915050565b6107ea81610bd9565b82525050565b6107f981610bd9565b82525050565b600061080a82610b22565b6108148185610b45565b93508360208202850161082685610b12565b8060005b85811015610862578484038952815161084385826107cd565b945061084e83610b38565b925060208a0199505060018101905061082a565b50829750879550505050505092915050565b600061087f82610b2d565b6108898185610b61565b9350610899818560208601610c24565b6108a281610da7565b840191505092915050565b60006108b882610b2d565b6108c28185610b72565b93506108d2818560208601610c24565b6108db81610da7565b840191505092915050565b60006108f3602883610b72565b91506108fe82610db8565b604082019050919050565b6000610916601383610b72565b915061092182610e07565b602082019050919050565b6000610939600083610b56565b915061094482610e30565b600082019050919050565b600060608301600083015161096760008601826107e1565b506020830151848203602086015261097f8282610874565b9150506040830151610994604086018261099f565b508091505092915050565b6109a881610c0b565b82525050565b6109b781610c0b565b82525050565b60006109c88261092c565b9150819050919050565b60006020820190506109e760008301846107f0565b92915050565b60006020820190508181036000830152610a0781846107ff565b905092915050565b60006020820190508181036000830152610a2981846108ad565b905092915050565b60006020820190508181036000830152610a4a816108e6565b9050919050565b60006020820190508181036000830152610a6a81610909565b9050919050565b6000602082019050610a8660008301846109ae565b92915050565b6000604082019050610aa160008301856109ae565b8181036020830152610ab381846108ad565b90509392505050565b6000610ac6610ad7565b9050610ad28282610c89565b919050565b6000604051905090565b600067ffffffffffffffff821115610afc57610afb610d78565b5b610b0582610da7565b9050602081019050919050565b6000819050602082019050919050565b600081519050919050565b600081519050919050565b6000602082019050919050565b600082825260208201905092915050565b600081905092915050565b600082825260208201905092915050565b600082825260208201905092915050565b6000610b8e82610c0b565b9150610b9983610c0b565b9250827fffffffffffffffffffffffffffffffffffffffffffffffffffffffffffffffff03821115610bce57610bcd610ceb565b5b828201905092915050565b6000610be482610beb565b9050919050565b600073ffffffffffffffffffffffffffffffffffffffff82169050919050565b6000819050919050565b82818337600083830152505050565b60005b83811015610c42578082015181840152602081019050610c27565b83811115610c51576000848401525b50505050565b60006002820490506001821680610c6f57607f821691505b60208210811415610c8357610c82610d49565b5b50919050565b610c9282610da7565b810181811067ffffffffffffffff82111715610cb157610cb0610d78565b5b80604052505050565b6000610cc582610c0b565b9150610cd083610c0b565b925082610ce057610cdf610d1a565b5b828206905092915050565b7f4e487b7100000000000000000000000000000000000000000000000000000000600052601160045260246000fd5b7f4e487b7100000000000000000000000000000000000000000000000000000000600052601260045260246000fd5b7f4e487b7100000000000000000000000000000000000000000000000000000000600052602260045260246000fd5b7f4e487b7100000000000000000000000000000000000000000000000000000000600052604160045260246000fd5b6000601f19601f8301169050919050565b7f4661696c656420746f207769746864726177206574686572732066726f6d206360008201527f6f6e74726163742e000000000000000000000000000000000000000000000000602082015250565b7f57652063616e2774206c6f616e2c206475682100000000000000000000000000600082015250565b5056fea2646970667358221220bc485284fddf51a0523a4574d6f3be9e304c704188a48e5c1ea7630b58a69bee64736f6c63430008040033",
  "linkReferences": {},
  "deployedLinkReferences": {}
}