{
  "_format": "hh-sol-artifact-1",
  "contractName": "PartyPortal",
  "sourceName": "contracts/PartyPortal.sol",
  "abi": [
    {
      "inputs": [],
      "stateMutability": "payable",
      "type": "constructor"
    },
    {
      "anonymous": false,
      "inputs": [
        {
          "indexed": true,
          "internalType": "address",
          "name": "from",
          "type": "address"
        }
      ],
      "name": "NewLeader",
      "type": "event"
    },
    {
      "anonymous": false,
      "inputs": [
        {
          "indexed": true,
          "internalType": "address",
          "name": "from",
          "type": "address"
        },
        {
          "indexed": false,
          "internalType": "uint256",
          "name": "timestamp",
          "type": "uint256"
        },
        {
          "indexed": false,
          "internalType": "string",
          "name": "message",
          "type": "string"
        }
      ],
      "name": "NewParty",
      "type": "event"
    },
    {
      "inputs": [],
      "name": "getBestHost",
      "outputs": [
        {
          "internalType": "address",
          "name": "",
          "type": "address"
        }
      ],
      "stateMutability": "view",
      "type": "function"
    },
    {
      "inputs": [],
      "name": "getParties",
      "outputs": [
        {
          "components": [
            {
              "internalType": "address",
              "name": "host",
              "type": "address"
            },
            {
              "internalType": "string",
              "name": "message",
              "type": "string"
            },
            {
              "internalType": "uint256",
              "name": "timestamp",
              "type": "uint256"
            }
          ],
          "internalType": "struct PartyPortal.Party[]",
          "name": "",
          "type": "tuple[]"
        }
      ],
      "stateMutability": "view",
      "type": "function"
    },
    {
      "inputs": [],
      "name": "getPartyCount",
      "outputs": [
        {
          "internalType": "uint256",
          "name": "",
          "type": "uint256"
        }
      ],
      "stateMutability": "view",
      "type": "function"
    },
    {
      "inputs": [
        {
          "internalType": "string",
          "name": "_message",
          "type": "string"
        }
      ],
      "name": "throwParty",
      "outputs": [],
      "stateMutability": "nonpayable",
      "type": "function"
    }
  ],
  "bytecode": "0x60806040526200004f6040518060400160405280601681526020017f50617274792072756e6e696e272e20506f6767657273000000000000000000008152506200007860201b620007491760201c565b6103e84442620000609190620001c5565b6200006c919062000266565b6004819055506200030d565b62000118816040516024016200008f919062000185565b6040516020818303038152906040527f41304fac000000000000000000000000000000000000000000000000000000007bffffffffffffffffffffffffffffffffffffffffffffffffffffffff19166020820180517bffffffffffffffffffffffffffffffffffffffffffffffffffffffff83818316178352505050506200011b60201b60201c565b50565b60008151905060006a636f6e736f6c652e6c6f679050602083016000808483855afa5050505050565b60006200015182620001a9565b6200015d8185620001b4565b93506200016f81856020860162000230565b6200017a81620002fc565b840191505092915050565b60006020820190508181036000830152620001a1818462000144565b905092915050565b600081519050919050565b600082825260208201905092915050565b6000620001d28262000226565b9150620001df8362000226565b9250817fffffffffffffffffffffffffffffffffffffffffffffffffffffffffffffffff04831182151516156200021b576200021a6200029e565b5b828202905092915050565b6000819050919050565b60005b838110156200025057808201518184015260208101905062000233565b8381111562000260576000848401525b50505050565b6000620002738262000226565b9150620002808362000226565b925082620002935762000292620002cd565b5b828206905092915050565b7f4e487b7100000000000000000000000000000000000000000000000000000000600052601160045260246000fd5b7f4e487b7100000000000000000000000000000000000000000000000000000000600052601260045260246000fd5b6000601f19601f8301169050919050565b611185806200031d6000396000f3fe608060405234801561001057600080fd5b506004361061004c5760003560e01c806360b960e514610051578063a8311aa81461006f578063ad0f2e061461008d578063ba4b3cb2146100ab575b600080fd5b6100596100c7565b6040516100669190610d0a565b60405180910390f35b6100776100d3565b6040516100849190610c36565b60405180910390f35b610095610224565b6040516100a29190610c1b565b60405180910390f35b6100c560048036038101906100c091906109b2565b61024e565b005b60008080549050905090565b60606000805480602002602001604051908101604052809291908181526020016000905b8282101561021b57838290600052602060002090600302016040518060600160405290816000820160009054906101000a900473ffffffffffffffffffffffffffffffffffffffff1673ffffffffffffffffffffffffffffffffffffffff1673ffffffffffffffffffffffffffffffffffffffff16815260200160018201805461018090610f4a565b80601f01602080910402602001604051908101604052809291908181526020018280546101ac90610f4a565b80156101f95780601f106101ce576101008083540402835291602001916101f9565b820191906000526020600020905b8154815290600101906020018083116101dc57829003601f168201915b50505050508152602001600282015481525050815260200190600101906100f7565b50505050905090565b6000600360009054906101000a900473ffffffffffffffffffffffffffffffffffffffff16905090565b426104b0600260003373ffffffffffffffffffffffffffffffffffffffff1673ffffffffffffffffffffffffffffffffffffffff1681526020019081526020016000205461029c9190610e1c565b106102dc576040517f08c379a00000000000000000000000000000000000000000000000000000000081526004016102d390610caa565b60405180910390fd5b42600260003373ffffffffffffffffffffffffffffffffffffffff1673ffffffffffffffffffffffffffffffffffffffff16815260200190815260200160002081905550600060405180606001604052803373ffffffffffffffffffffffffffffffffffffffff16815260200183815260200142815250908060018154018082558091505060019003906000526020600020906003020160009091909190915060008201518160000160006101000a81548173ffffffffffffffffffffffffffffffffffffffff021916908373ffffffffffffffffffffffffffffffffffffffff16021790555060208201518160010190805190602001906103df9291906108a7565b5060408201518160020155505060018060003373ffffffffffffffffffffffffffffffffffffffff1673ffffffffffffffffffffffffffffffffffffffff168152602001908152602001600020600082825461043b9190610e1c565b9250508190555060016000600360009054906101000a900473ffffffffffffffffffffffffffffffffffffffff1673ffffffffffffffffffffffffffffffffffffffff1673ffffffffffffffffffffffffffffffffffffffff16815260200190815260200160002054600160003373ffffffffffffffffffffffffffffffffffffffff1673ffffffffffffffffffffffffffffffffffffffff1681526020019081526020016000205411156105915733600360006101000a81548173ffffffffffffffffffffffffffffffffffffffff021916908373ffffffffffffffffffffffffffffffffffffffff160217905550600360009054906101000a900473ffffffffffffffffffffffffffffffffffffffff1673ffffffffffffffffffffffffffffffffffffffff167fd5c441678016e6395cfedd432cb8681c9e7bad1e08184bc4c3a463610afbed1660405160405180910390a25b6103e844426105a09190610e72565b6105aa9190610fad565b6004819055506045600454116106f6576105f96040518060400160405280600781526020017f25732c20776f6e00000000000000000000000000000000000000000000000000815250336107e2565b60006509184e72a000905047811115610647576040517f08c379a000000000000000000000000000000000000000000000000000000000815260040161063e90610cea565b60405180910390fd5b60003373ffffffffffffffffffffffffffffffffffffffff168260405161066d90610c06565b60006040518083038185875af1925050503d80600081146106aa576040519150601f19603f3d011682016040523d82523d6000602084013e6106af565b606091505b50509050806106f3576040517f08c379a00000000000000000000000000000000000000000000000000000000081526004016106ea90610cca565b60405180910390fd5b50505b3373ffffffffffffffffffffffffffffffffffffffff167ff9a6af53c5fc98f326a94053644fe1b3e1a9fe5d82a650606b585aeb9584f320428360405161073e929190610d25565b60405180910390a250565b6107df8160405160240161075d9190610c58565b6040516020818303038152906040527f41304fac000000000000000000000000000000000000000000000000000000007bffffffffffffffffffffffffffffffffffffffffffffffffffffffff19166020820180517bffffffffffffffffffffffffffffffffffffffffffffffffffffffff838183161783525050505061087e565b50565b61087a82826040516024016107f8929190610c7a565b6040516020818303038152906040527f319af333000000000000000000000000000000000000000000000000000000007bffffffffffffffffffffffffffffffffffffffffffffffffffffffff19166020820180517bffffffffffffffffffffffffffffffffffffffffffffffffffffffff838183161783525050505061087e565b5050565b60008151905060006a636f6e736f6c652e6c6f679050602083016000808483855afa5050505050565b8280546108b390610f4a565b90600052602060002090601f0160209004810192826108d5576000855561091c565b82601f106108ee57805160ff191683800117855561091c565b8280016001018555821561091c579182015b8281111561091b578251825591602001919060010190610900565b5b509050610929919061092d565b5090565b5b8082111561094657600081600090555060010161092e565b5090565b600061095d61095884610d7a565b610d55565b90508281526020810184848401111561097557600080fd5b610980848285610f08565b509392505050565b600082601f83011261099957600080fd5b81356109a984826020860161094a565b91505092915050565b6000602082840312156109c457600080fd5b600082013567ffffffffffffffff8111156109de57600080fd5b6109ea84828501610988565b91505092915050565b60006109ff8383610b98565b905092915050565b610a1081610ecc565b82525050565b610a1f81610ecc565b82525050565b6000610a3082610dbb565b610a3a8185610dde565b935083602082028501610a4c85610dab565b8060005b85811015610a885784840389528151610a6985826109f3565b9450610a7483610dd1565b925060208a01995050600181019050610a50565b50829750879550505050505092915050565b6000610aa582610dc6565b610aaf8185610dfa565b9350610abf818560208601610f17565b610ac88161109a565b840191505092915050565b6000610ade82610dc6565b610ae88185610e0b565b9350610af8818560208601610f17565b610b018161109a565b840191505092915050565b6000610b19601c83610e0b565b9150610b24826110ab565b602082019050919050565b6000610b3c602883610e0b565b9150610b47826110d4565b604082019050919050565b6000610b5f601383610e0b565b9150610b6a82611123565b602082019050919050565b6000610b82600083610def565b9150610b8d8261114c565b600082019050919050565b6000606083016000830151610bb06000860182610a07565b5060208301518482036020860152610bc88282610a9a565b9150506040830151610bdd6040860182610be8565b508091505092915050565b610bf181610efe565b82525050565b610c0081610efe565b82525050565b6000610c1182610b75565b9150819050919050565b6000602082019050610c306000830184610a16565b92915050565b60006020820190508181036000830152610c508184610a25565b905092915050565b60006020820190508181036000830152610c728184610ad3565b905092915050565b60006040820190508181036000830152610c948185610ad3565b9050610ca36020830184610a16565b9392505050565b60006020820190508181036000830152610cc381610b0c565b9050919050565b60006020820190508181036000830152610ce381610b2f565b9050919050565b60006020820190508181036000830152610d0381610b52565b9050919050565b6000602082019050610d1f6000830184610bf7565b92915050565b6000604082019050610d3a6000830185610bf7565b8181036020830152610d4c8184610ad3565b90509392505050565b6000610d5f610d70565b9050610d6b8282610f7c565b919050565b6000604051905090565b600067ffffffffffffffff821115610d9557610d9461106b565b5b610d9e8261109a565b9050602081019050919050565b6000819050602082019050919050565b600081519050919050565b600081519050919050565b6000602082019050919050565b600082825260208201905092915050565b600081905092915050565b600082825260208201905092915050565b600082825260208201905092915050565b6000610e2782610efe565b9150610e3283610efe565b9250827fffffffffffffffffffffffffffffffffffffffffffffffffffffffffffffffff03821115610e6757610e66610fde565b5b828201905092915050565b6000610e7d82610efe565b9150610e8883610efe565b9250817fffffffffffffffffffffffffffffffffffffffffffffffffffffffffffffffff0483118215151615610ec157610ec0610fde565b5b828202905092915050565b6000610ed782610ede565b9050919050565b600073ffffffffffffffffffffffffffffffffffffffff82169050919050565b6000819050919050565b82818337600083830152505050565b60005b83811015610f35578082015181840152602081019050610f1a565b83811115610f44576000848401525b50505050565b60006002820490506001821680610f6257607f821691505b60208210811415610f7657610f7561103c565b5b50919050565b610f858261109a565b810181811067ffffffffffffffff82111715610fa457610fa361106b565b5b80604052505050565b6000610fb882610efe565b9150610fc383610efe565b925082610fd357610fd261100d565b5b828206905092915050565b7f4e487b7100000000000000000000000000000000000000000000000000000000600052601160045260246000fd5b7f4e487b7100000000000000000000000000000000000000000000000000000000600052601260045260246000fd5b7f4e487b7100000000000000000000000000000000000000000000000000000000600052602260045260246000fd5b7f4e487b7100000000000000000000000000000000000000000000000000000000600052604160045260246000fd5b6000601f19601f8301169050919050565b7f57686f612c20736c6f7720646f776e207468657265206368616d702100000000600082015250565b7f4661696c656420746f207769746864726177206574686572732066726f6d206360008201527f6f6e74726163742e000000000000000000000000000000000000000000000000602082015250565b7f57652063616e2774206c6f616e2c206475682100000000000000000000000000600082015250565b5056fea26469706673582212202f082956b7f2311cef9b273305460d45891c3bfa0e5315fcc9ad076de50be5c264736f6c63430008040033",
  "linkReferences": {},
  "deployedLinkReferences": {}
}