{
  "_format": "hh-sol-artifact-1",
  "contractName": "PartyPortal",
  "sourceName": "contracts/PartyPortal.sol",
  "abi": [
    {
      "inputs": [],
      "stateMutability": "nonpayable",
      "type": "constructor"
    },
    {
      "anonymous": false,
      "inputs": [
        {
          "indexed": true,
          "internalType": "address",
          "name": "from",
          "type": "address"
        },
        {
          "indexed": false,
          "internalType": "uint256",
          "name": "timestamp",
          "type": "uint256"
        },
        {
          "indexed": false,
          "internalType": "string",
          "name": "message",
          "type": "string"
        }
      ],
      "name": "NewParty",
      "type": "event"
    },
    {
      "inputs": [],
      "name": "getBestHost",
      "outputs": [
        {
          "internalType": "address",
          "name": "",
          "type": "address"
        }
      ],
      "stateMutability": "view",
      "type": "function"
    },
    {
      "inputs": [],
      "name": "getParties",
      "outputs": [
        {
          "components": [
            {
              "internalType": "address",
              "name": "host",
              "type": "address"
            },
            {
              "internalType": "string",
              "name": "message",
              "type": "string"
            },
            {
              "internalType": "uint256",
              "name": "timestamp",
              "type": "uint256"
            }
          ],
          "internalType": "struct PartyPortal.Party[]",
          "name": "",
          "type": "tuple[]"
        }
      ],
      "stateMutability": "view",
      "type": "function"
    },
    {
      "inputs": [],
      "name": "getTotalParty",
      "outputs": [
        {
          "internalType": "uint256",
          "name": "",
          "type": "uint256"
        }
      ],
      "stateMutability": "view",
      "type": "function"
    },
    {
      "inputs": [
        {
          "internalType": "string",
          "name": "_message",
          "type": "string"
        }
      ],
      "name": "throwParty",
      "outputs": [],
      "stateMutability": "nonpayable",
      "type": "function"
    }
  ],
  "bytecode": "0x60806040523480156200001157600080fd5b506200005d6040518060400160405280601681526020017f50617274792072756e6e696e272e20506f6767657273000000000000000000008152506200006360201b620004ad1760201c565b620001f7565b62000103816040516024016200007a919062000170565b6040516020818303038152906040527f41304fac000000000000000000000000000000000000000000000000000000007bffffffffffffffffffffffffffffffffffffffffffffffffffffffff19166020820180517bffffffffffffffffffffffffffffffffffffffffffffffffffffffff83818316178352505050506200010660201b60201c565b50565b60008151905060006a636f6e736f6c652e6c6f679050602083016000808483855afa5050505050565b60006200013c8262000194565b6200014881856200019f565b93506200015a818560208601620001b0565b6200016581620001e6565b840191505092915050565b600060208201905081810360008301526200018c81846200012f565b905092915050565b600081519050919050565b600082825260208201905092915050565b60005b83811015620001d0578082015181840152602081019050620001b3565b83811115620001e0576000848401525b50505050565b6000601f19601f8301169050919050565b610bb380620002076000396000f3fe608060405234801561001057600080fd5b506004361061004c5760003560e01c80636d5ab6d714610051578063a8311aa81461006f578063ad0f2e061461008d578063ba4b3cb2146100ab575b600080fd5b6100596100c7565b60405161006691906108a1565b60405180910390f35b6100776100d3565b604051610084919061085d565b60405180910390f35b610095610224565b6040516100a29190610842565b60405180910390f35b6100c560048036038101906100c0919061067a565b61024e565b005b60008080549050905090565b60606000805480602002602001604051908101604052809291908181526020016000905b8282101561021b57838290600052602060002090600302016040518060600160405290816000820160009054906101000a900473ffffffffffffffffffffffffffffffffffffffff1673ffffffffffffffffffffffffffffffffffffffff1673ffffffffffffffffffffffffffffffffffffffff16815260200160018201805461018090610a7c565b80601f01602080910402602001604051908101604052809291908181526020018280546101ac90610a7c565b80156101f95780601f106101ce576101008083540402835291602001916101f9565b820191906000526020600020905b8154815290600101906020018083116101dc57829003601f168201915b50505050508152602001600282015481525050815260200190600101906100f7565b50505050905090565b6000600260009054906101000a900473ffffffffffffffffffffffffffffffffffffffff16905090565b600060405180606001604052803373ffffffffffffffffffffffffffffffffffffffff16815260200183815260200142815250908060018154018082558091505060019003906000526020600020906003020160009091909190915060008201518160000160006101000a81548173ffffffffffffffffffffffffffffffffffffffff021916908373ffffffffffffffffffffffffffffffffffffffff160217905550602082015181600101908051906020019061030d92919061056f565b5060408201518160020155505060018060003373ffffffffffffffffffffffffffffffffffffffff1673ffffffffffffffffffffffffffffffffffffffff168152602001908152602001600020600082825461036991906109a8565b9250508190555060016000600260009054906101000a900473ffffffffffffffffffffffffffffffffffffffff1673ffffffffffffffffffffffffffffffffffffffff1673ffffffffffffffffffffffffffffffffffffffff16815260200190815260200160002054600160003373ffffffffffffffffffffffffffffffffffffffff1673ffffffffffffffffffffffffffffffffffffffff16815260200190815260200160002054111561045a5733600260006101000a81548173ffffffffffffffffffffffffffffffffffffffff021916908373ffffffffffffffffffffffffffffffffffffffff1602179055505b3373ffffffffffffffffffffffffffffffffffffffff167ff9a6af53c5fc98f326a94053644fe1b3e1a9fe5d82a650606b585aeb9584f32042836040516104a29291906108bc565b60405180910390a250565b610543816040516024016104c1919061087f565b6040516020818303038152906040527f41304fac000000000000000000000000000000000000000000000000000000007bffffffffffffffffffffffffffffffffffffffffffffffffffffffff19166020820180517bffffffffffffffffffffffffffffffffffffffffffffffffffffffff8381831617835250505050610546565b50565b60008151905060006a636f6e736f6c652e6c6f679050602083016000808483855afa5050505050565b82805461057b90610a7c565b90600052602060002090601f01602090048101928261059d57600085556105e4565b82601f106105b657805160ff19168380011785556105e4565b828001600101855582156105e4579182015b828111156105e35782518255916020019190600101906105c8565b5b5090506105f191906105f5565b5090565b5b8082111561060e5760008160009055506001016105f6565b5090565b600061062561062084610911565b6108ec565b90508281526020810184848401111561063d57600080fd5b610648848285610a3a565b509392505050565b600082601f83011261066157600080fd5b8135610671848260208601610612565b91505092915050565b60006020828403121561068c57600080fd5b600082013567ffffffffffffffff8111156106a657600080fd5b6106b284828501610650565b91505092915050565b60006106c783836107d4565b905092915050565b6106d8816109fe565b82525050565b6106e7816109fe565b82525050565b60006106f882610952565b6107028185610975565b93508360208202850161071485610942565b8060005b85811015610750578484038952815161073185826106bb565b945061073c83610968565b925060208a01995050600181019050610718565b50829750879550505050505092915050565b600061076d8261095d565b6107778185610986565b9350610787818560208601610a49565b61079081610b6c565b840191505092915050565b60006107a68261095d565b6107b08185610997565b93506107c0818560208601610a49565b6107c981610b6c565b840191505092915050565b60006060830160008301516107ec60008601826106cf565b50602083015184820360208601526108048282610762565b91505060408301516108196040860182610824565b508091505092915050565b61082d81610a30565b82525050565b61083c81610a30565b82525050565b600060208201905061085760008301846106de565b92915050565b6000602082019050818103600083015261087781846106ed565b905092915050565b60006020820190508181036000830152610899818461079b565b905092915050565b60006020820190506108b66000830184610833565b92915050565b60006040820190506108d16000830185610833565b81810360208301526108e3818461079b565b90509392505050565b60006108f6610907565b90506109028282610aae565b919050565b6000604051905090565b600067ffffffffffffffff82111561092c5761092b610b3d565b5b61093582610b6c565b9050602081019050919050565b6000819050602082019050919050565b600081519050919050565b600081519050919050565b6000602082019050919050565b600082825260208201905092915050565b600082825260208201905092915050565b600082825260208201905092915050565b60006109b382610a30565b91506109be83610a30565b9250827fffffffffffffffffffffffffffffffffffffffffffffffffffffffffffffffff038211156109f3576109f2610adf565b5b828201905092915050565b6000610a0982610a10565b9050919050565b600073ffffffffffffffffffffffffffffffffffffffff82169050919050565b6000819050919050565b82818337600083830152505050565b60005b83811015610a67578082015181840152602081019050610a4c565b83811115610a76576000848401525b50505050565b60006002820490506001821680610a9457607f821691505b60208210811415610aa857610aa7610b0e565b5b50919050565b610ab782610b6c565b810181811067ffffffffffffffff82111715610ad657610ad5610b3d565b5b80604052505050565b7f4e487b7100000000000000000000000000000000000000000000000000000000600052601160045260246000fd5b7f4e487b7100000000000000000000000000000000000000000000000000000000600052602260045260246000fd5b7f4e487b7100000000000000000000000000000000000000000000000000000000600052604160045260246000fd5b6000601f19601f830116905091905056fea2646970667358221220267e6735ec010f5a088ebb5435ce3fe7173be832a981bec95c09d97d3344c43564736f6c63430008040033",
  "linkReferences": {},
  "deployedLinkReferences": {}
}