{
  "_format": "hh-sol-artifact-1",
  "contractName": "PartyPortal",
  "sourceName": "contracts/PartyPortal.sol",
  "abi": [
    {
      "inputs": [],
      "stateMutability": "nonpayable",
      "type": "constructor"
    },
    {
      "inputs": [],
      "name": "getBestHost",
      "outputs": [
        {
          "internalType": "address",
          "name": "",
          "type": "address"
        }
      ],
      "stateMutability": "view",
      "type": "function"
    },
    {
      "inputs": [
        {
          "internalType": "address",
          "name": "owner",
          "type": "address"
        }
      ],
      "name": "getParties",
      "outputs": [
        {
          "internalType": "uint256",
          "name": "",
          "type": "uint256"
        }
      ],
      "stateMutability": "view",
      "type": "function"
    },
    {
      "inputs": [],
      "name": "getPartyCount",
      "outputs": [
        {
          "internalType": "uint256",
          "name": "",
          "type": "uint256"
        }
      ],
      "stateMutability": "view",
      "type": "function"
    },
    {
      "inputs": [],
      "name": "throwParty",
      "outputs": [],
      "stateMutability": "nonpayable",
      "type": "function"
    }
  ],
  "bytecode": "0x608060405234801561001057600080fd5b506100596040518060400160405280600d81526020017f50617274792072756e6e696e270000000000000000000000000000000000000081525061005e60201b61028f1760201c565b6101e1565b6100fa81604051602401610072919061015f565b6040516020818303038152906040527f41304fac000000000000000000000000000000000000000000000000000000007bffffffffffffffffffffffffffffffffffffffffffffffffffffffff19166020820180517bffffffffffffffffffffffffffffffffffffffffffffffffffffffff83818316178352505050506100fd60201b60201c565b50565b60008151905060006a636f6e736f6c652e6c6f679050602083016000808483855afa5050505050565b600061013182610181565b61013b818561018c565b935061014b81856020860161019d565b610154816101d0565b840191505092915050565b600060208201905081810360008301526101798184610126565b905092915050565b600081519050919050565b600082825260208201905092915050565b60005b838110156101bb5780820151818401526020810190506101a0565b838111156101ca576000848401525b50505050565b6000601f19601f8301169050919050565b6105ac806101f06000396000f3fe608060405234801561001057600080fd5b506004361061004c5760003560e01c80632a3ed2fa1461005157806360b960e51461005b578063ad0f2e0614610079578063c433603614610097575b600080fd5b6100596100c7565b005b610063610210565b6040516100709190610423565b60405180910390f35b61008161021a565b60405161008e91906103e6565b60405180910390f35b6100b160048036038101906100ac9190610366565b610247565b6040516100be9190610423565b60405180910390f35b60016000803373ffffffffffffffffffffffffffffffffffffffff1673ffffffffffffffffffffffffffffffffffffffff1681526020019081526020016000206000828254610116919061045a565b92505081905550600180600082825461012f919061045a565b925050819055506000803373ffffffffffffffffffffffffffffffffffffffff1673ffffffffffffffffffffffffffffffffffffffff16815260200190815260200160002054600260010154101561020e5733600260000160006101000a81548173ffffffffffffffffffffffffffffffffffffffff021916908373ffffffffffffffffffffffffffffffffffffffff1602179055506000803373ffffffffffffffffffffffffffffffffffffffff1673ffffffffffffffffffffffffffffffffffffffff168152602001908152602001600020546002600101819055505b565b6000600154905090565b6000600260000160009054906101000a900473ffffffffffffffffffffffffffffffffffffffff16905090565b60008060008373ffffffffffffffffffffffffffffffffffffffff1673ffffffffffffffffffffffffffffffffffffffff168152602001908152602001600020549050919050565b610325816040516024016102a39190610401565b6040516020818303038152906040527f41304fac000000000000000000000000000000000000000000000000000000007bffffffffffffffffffffffffffffffffffffffffffffffffffffffff19166020820180517bffffffffffffffffffffffffffffffffffffffffffffffffffffffff8381831617835250505050610328565b50565b60008151905060006a636f6e736f6c652e6c6f679050602083016000808483855afa5050505050565b6000813590506103608161055f565b92915050565b60006020828403121561037857600080fd5b600061038684828501610351565b91505092915050565b610398816104b0565b82525050565b60006103a98261043e565b6103b38185610449565b93506103c38185602086016104ec565b6103cc8161054e565b840191505092915050565b6103e0816104e2565b82525050565b60006020820190506103fb600083018461038f565b92915050565b6000602082019050818103600083015261041b818461039e565b905092915050565b600060208201905061043860008301846103d7565b92915050565b600081519050919050565b600082825260208201905092915050565b6000610465826104e2565b9150610470836104e2565b9250827fffffffffffffffffffffffffffffffffffffffffffffffffffffffffffffffff038211156104a5576104a461051f565b5b828201905092915050565b60006104bb826104c2565b9050919050565b600073ffffffffffffffffffffffffffffffffffffffff82169050919050565b6000819050919050565b60005b8381101561050a5780820151818401526020810190506104ef565b83811115610519576000848401525b50505050565b7f4e487b7100000000000000000000000000000000000000000000000000000000600052601160045260246000fd5b6000601f19601f8301169050919050565b610568816104b0565b811461057357600080fd5b5056fea2646970667358221220a772432f26fa9fa2131203e325bc05ae1dae50bce44aa9489501c5e163e8f37d64736f6c63430008040033",
  "linkReferences": {},
  "deployedLinkReferences": {}
}